{
    "abi": [
        {
            "type": "constructor",
            "inputs": [],
            "stateMutability": "nonpayable"
        },
        {
            "type": "fallback",
            "stateMutability": "payable"
        },
        {
            "type": "receive",
            "stateMutability": "payable"
        },
        {
            "type": "function",
            "name": "checkpoint",
            "inputs": [
                {
                    "name": "methodName",
                    "type": "string",
                    "internalType": "string"
                }
            ],
            "outputs": [
                {
                    "name": "",
                    "type": "bool",
                    "internalType": "bool"
                }
            ],
            "stateMutability": "nonpayable"
        },
        {
            "type": "function",
            "name": "checkpointCounts",
            "inputs": [
                {
                    "name": "user",
                    "type": "address",
                    "internalType": "address"
                }
            ],
            "outputs": [
                {
                    "name": "checkpointCount",
                    "type": "uint256",
                    "internalType": "uint256"
                }
            ],
            "stateMutability": "view"
        },
        {
            "type": "function",
            "name": "checkpoints",
            "inputs": [
                {
                    "name": "",
                    "type": "address",
                    "internalType": "address"
                },
                {
                    "name": "",
                    "type": "uint256",
                    "internalType": "uint256"
                }
            ],
            "outputs": [
                {
                    "name": "",
                    "type": "string",
                    "internalType": "string"
                }
            ],
            "stateMutability": "view"
        },
        {
            "type": "function",
            "name": "depositERC20TokenIntoReInsurancePool",
            "inputs": [],
            "outputs": [
                {
                    "name": "",
                    "type": "bool",
                    "internalType": "bool"
                }
            ],
            "stateMutability": "nonpayable"
        },
        {
            "type": "function",
            "name": "depositNativeTokenIntoReInsurancePool",
            "inputs": [],
            "outputs": [
                {
                    "name": "",
                    "type": "bool",
                    "internalType": "bool"
                }
            ],
            "stateMutability": "payable"
        },
        {
            "type": "function",
            "name": "depositedAmounts",
            "inputs": [
                {
                    "name": "",
                    "type": "address",
                    "internalType": "address"
                }
            ],
            "outputs": [
                {
                    "name": "",
                    "type": "uint256",
                    "internalType": "uint256"
                }
            ],
            "stateMutability": "view"
        },
        {
            "type": "function",
            "name": "depositers",
            "inputs": [
                {
                    "name": "",
                    "type": "address",
                    "internalType": "address"
                }
            ],
            "outputs": [
                {
                    "name": "",
                    "type": "bool",
                    "internalType": "bool"
                }
            ],
            "stateMutability": "view"
        },
        {
            "type": "function",
            "name": "deregisterAsDepositer",
            "inputs": [],
            "outputs": [
                {
                    "name": "",
                    "type": "bool",
                    "internalType": "bool"
                }
            ],
            "stateMutability": "nonpayable"
        },
        {
            "type": "function",
            "name": "distributeNativeTokenIntoInsurancePool",
            "inputs": [
                {
                    "name": "insurancePool",
                    "type": "address",
                    "internalType": "address"
                },
                {
                    "name": "amount",
                    "type": "uint256",
                    "internalType": "uint256"
                }
            ],
            "outputs": [
                {
                    "name": "",
                    "type": "bool",
                    "internalType": "bool"
                }
            ],
            "stateMutability": "payable"
        },
        {
            "type": "function",
            "name": "getCheckpoint",
            "inputs": [
                {
                    "name": "timestamp",
                    "type": "uint256",
                    "internalType": "uint256"
                }
            ],
            "outputs": [
                {
                    "name": "_methodName",
                    "type": "string",
                    "internalType": "string"
                }
            ],
            "stateMutability": "view"
        },
        {
            "type": "function",
            "name": "getContractBalance",
            "inputs": [],
            "outputs": [
                {
                    "name": "",
                    "type": "uint256",
                    "internalType": "uint256"
                }
            ],
            "stateMutability": "view"
        },
        {
            "type": "function",
            "name": "getRewards",
            "inputs": [],
            "outputs": [
                {
                    "name": "",
                    "type": "bool",
                    "internalType": "bool"
                }
            ],
            "stateMutability": "view"
        },
        {
            "type": "function",
            "name": "registerAsDepositer",
            "inputs": [],
            "outputs": [
                {
                    "name": "",
                    "type": "bool",
                    "internalType": "bool"
                }
            ],
            "stateMutability": "nonpayable"
        },
        {
            "type": "function",
            "name": "testFunctionForCheckPoint",
            "inputs": [],
            "outputs": [
                {
                    "name": "",
                    "type": "bool",
                    "internalType": "bool"
                }
            ],
            "stateMutability": "nonpayable"
        },
        {
            "type": "function",
            "name": "version",
            "inputs": [],
            "outputs": [
                {
                    "name": "",
                    "type": "string",
                    "internalType": "string"
                }
            ],
            "stateMutability": "view"
        },
        {
            "type": "function",
            "name": "withdrawERC20TokenFromReInsurancePool",
            "inputs": [],
            "outputs": [
                {
                    "name": "",
                    "type": "bool",
                    "internalType": "bool"
                }
            ],
            "stateMutability": "nonpayable"
        },
        {
            "type": "function",
            "name": "withdrawNativeTokenFromReInsurancePool",
            "inputs": [],
            "outputs": [
                {
                    "name": "",
                    "type": "bool",
                    "internalType": "bool"
                }
            ],
            "stateMutability": "nonpayable"
        }
    ],
    "bytecode": {
        "object": "0x608060405234801561001057600080fd5b50604080518082019091526006815265302e322e323760d01b602082015260049061003b90826100e0565b5061019e565b634e487b7160e01b600052604160045260246000fd5b600181811c9082168061006b57607f821691505b60208210810361008b57634e487b7160e01b600052602260045260246000fd5b50919050565b601f8211156100db57806000526020600020601f840160051c810160208510156100b85750805b601f840160051c820191505b818110156100d857600081556001016100c4565b50505b505050565b81516001600160401b038111156100f9576100f9610041565b61010d816101078454610057565b84610091565b6020601f82116001811461014157600083156101295750848201515b600019600385901b1c1916600184901b1784556100d8565b600084815260208120601f198516915b828110156101715787850151825560209485019460019092019101610151565b508482101561018f5786840151600019600387901b60f8161c191681555b50505050600190811b01905550565b6112d0806101ad6000396000f3fe6080604052600436106101025760003560e01c80638099b3f511610095578063c1bdf40e11610064578063c1bdf40e14610403578063ccf565d914610418578063d4b739721461042d578063df78b2621461045a578063e214f8c61461046d576101db565b80638099b3f51461039757806389a37651146103ac57806391781cba146103c1578063c0a32996146103d6576101db565b806354fd4d50116100d157806354fd4d50146103155780636384c0451461032a5780636697a9251461035a5780636f9fb98a1461037a576101db565b80630572b0cc14610289578063064cd549146102b35780630cdfebfa146102c857806320fc4881146102f5576101db565b366101db57600034116101535760405162461bcd60e51b815260206004820152601460248201527326bab9ba1039b2b7321039b7b6b29022ba3432b960611b60448201526064015b60405180910390fd5b3360009081526003602052604081208054349290610172908490610eb7565b909155505060408051808201825260078152667265636569766560c81b60208083019190915233600090815280825283812042825290915291909120906101b99082610f69565b503360009081526001602052604081208054916101d583611028565b91905055005b600034116102225760405162461bcd60e51b815260206004820152601460248201527326bab9ba1039b2b7321039b7b6b29022ba3432b960611b604482015260640161014a565b3360009081526003602052604081208054349290610241908490610eb7565b9091555050604080518082018252600881526766616c6c6261636b60c01b60208083019190915233600090815280825283812042825290915291909120906101b99082610f69565b34801561029557600080fd5b5061029e610475565b60405190151581526020015b60405180910390f35b3480156102bf57600080fd5b5061029e6104ea565b3480156102d457600080fd5b506102e86102e336600461105d565b6106bd565b6040516102aa9190611087565b34801561030157600080fd5b506102e86103103660046110d5565b61075f565b34801561032157600080fd5b506102e861080b565b34801561033657600080fd5b5061029e6103453660046110ee565b60026020526000908152604090205460ff1681565b34801561036657600080fd5b5061029e610375366004611110565b610818565b34801561038657600080fd5b50475b6040519081526020016102aa565b3480156103a357600080fd5b5061029e6108aa565b3480156103b857600080fd5b5061029e610929565b3480156103cd57600080fd5b5061029e610967565b3480156103e257600080fd5b506103896103f13660046110ee565b60016020526000908152604090205481565b34801561040f57600080fd5b5061029e610a39565b34801561042457600080fd5b5061029e610b04565b34801561043957600080fd5b506103896104483660046110ee565b60036020526000908152604090205481565b61029e61046836600461105d565b610b42565b61029e610d01565b33600090815260016020526040812054819061049990670de0b6b3a76400006111c9565b9050600081116104e25760405162461bcd60e51b81526020600482015260146024820152734e6f207265776172647320617661696c61626c6560601b604482015260640161014a565b600191505090565b3360009081526002602052604081205460ff166105495760405162461bcd60e51b815260206004820152601760248201527f596f7520617265206e6f742061206465706f7369746572000000000000000000604482015260640161014a565b336000908152600360205260409020546105b65760405162461bcd60e51b815260206004820152602860248201527f596f752068617665206e6f206465706f736974656420616d6f756e7420746f20604482015267776974686472617760c01b606482015260840161014a565b33600081815260036020526040808220805490839055905190929190829084908381818185875af1925050503d806000811461060e576040519150601f19603f3d011682016040523d82523d6000602084013e610613565b606091505b50509050806106565760405162461bcd60e51b815260206004820152600f60248201526e15da5d1a191c985dc819985a5b1959608a1b604482015260640161014a565b6040518060600160405280602681526020016111e160269139336000908152602081815260408083204284529091529020906106929082610f69565b503360009081526001602052604081208054916106ae83611028565b91905055506001935050505090565b6000602081815292815260408082209093529081522080546106de90610ee0565b80601f016020809104026020016040519081016040528092919081815260200182805461070a90610ee0565b80156107575780601f1061072c57610100808354040283529160200191610757565b820191906000526020600020905b81548152906001019060200180831161073a57829003601f168201915b505050505081565b33600090815260208181526040808320848452909152902080546060919061078690610ee0565b80601f01602080910402602001604051908101604052809291908181526020018280546107b290610ee0565b80156107ff5780601f106107d4576101008083540402835291602001916107ff565b820191906000526020600020905b8154815290600101906020018083116107e257829003601f168201915b50505050509050919050565b600480546106de90610ee0565b33600090815260208181526040808320428452909152812061083a8382610f69565b50604080518082018252600b81526a636865636b706f696e747360a81b60208083019190915233600090815280825283812042825290915291909120906108819082610f69565b5033600090815260016020526040812080549161089d83611028565b9091555060019392505050565b604080518082018252601981527f7465737446756e6374696f6e466f72436865636b506f696e7400000000000000602080830191909152336000908152808252838120428252909152918220906109019082610f69565b5033600090815260016020526040812080549161091d83611028565b91905055506001905090565b600060405180606001604052806024815260200161120760249139336000908152602081815260408083204284529091529020906109019082610f69565b3360009081526002602052604081205460ff16156109da5760405162461bcd60e51b815260206004820152602a60248201527f596f75206861766520616c726561647920726567697374657265642061732061604482015269103232b837b9b4ba32b960b11b606482015260840161014a565b336000818152600260209081526040808320805460ff191660011790558051808201825260138152723932b3b4b9ba32b920b9a232b837b9b4ba32b960691b818401529383528282528083204284529091529020906109019082610f69565b3360009081526002602052604081205460ff16610aa65760405162461bcd60e51b815260206004820152602560248201527f596f7520617265206e6f7420726567697374657265642061732061206465706f60448201526439b4ba32b960d91b606482015260840161014a565b336000818152600260209081526040808320805460ff191690558051808201825260158152743232b932b3b4b9ba32b920b9a232b837b9b4ba32b960591b818401529383528282528083204284529091529020906109019082610f69565b600060405180606001604052806025815260200161127660259139336000908152602081815260408083204284529091529020906109019082610f69565b6000808211610b935760405162461bcd60e51b815260206004820152601d60248201527f416d6f756e74206d7573742062652067726561746572207468616e2030000000604482015260640161014a565b81471015610be35760405162461bcd60e51b815260206004820152601f60248201527f496e73756666696369656e742062616c616e636520746f206465706f73697400604482015260640161014a565b6000836001600160a01b03168360405160006040518083038185875af1925050503d8060008114610c30576040519150601f19603f3d011682016040523d82523d6000602084013e610c35565b606091505b5050905080610c985760405162461bcd60e51b815260206004820152602960248201527f446973747269627574696f6e20746f2074686520696e737572616e636520706f6044820152681bdb0819985a5b195960ba1b606482015260840161014a565b60405180606001604052806026815260200161122b6026913933600090815260208181526040808320428452909152902090610cd49082610f69565b50336000908152600160205260408120805491610cf083611028565b919050555060019150505b92915050565b6000803411610d525760405162461bcd60e51b815260206004820152601d60248201527f416d6f756e74206d7573742062652067726561746572207468616e2030000000604482015260640161014a565b3433311015610da35760405162461bcd60e51b815260206004820152601f60248201527f496e73756666696369656e742062616c616e636520746f206465706f73697400604482015260640161014a565b33600090815260036020526040808220349081905590513091908381818185875af1925050503d8060008114610df5576040519150601f19603f3d011682016040523d82523d6000602084013e610dfa565b606091505b5050905080610e3c5760405162461bcd60e51b815260206004820152600e60248201526d11195c1bdcda5d0819985a5b195960921b604482015260640161014a565b6040518060600160405280602581526020016112516025913933600090815260208181526040808320428452909152902090610e789082610f69565b50336000908152600160205260408120805491610e9483611028565b9190505550600191505090565b634e487b7160e01b600052601160045260246000fd5b80820180821115610cfb57610cfb610ea1565b634e487b7160e01b600052604160045260246000fd5b600181811c90821680610ef457607f821691505b602082108103610f1457634e487b7160e01b600052602260045260246000fd5b50919050565b601f821115610f6457806000526020600020601f840160051c81016020851015610f415750805b601f840160051c820191505b81811015610f615760008155600101610f4d565b50505b505050565b815167ffffffffffffffff811115610f8357610f83610eca565b610f9781610f918454610ee0565b84610f1a565b6020601f821160018114610fcb5760008315610fb35750848201515b600019600385901b1c1916600184901b178455610f61565b600084815260208120601f198516915b82811015610ffb5787850151825560209485019460019092019101610fdb565b50848210156110195786840151600019600387901b60f8161c191681555b50505050600190811b01905550565b60006001820161103a5761103a610ea1565b5060010190565b80356001600160a01b038116811461105857600080fd5b919050565b6000806040838503121561107057600080fd5b61107983611041565b946020939093013593505050565b602081526000825180602084015260005b818110156110b55760208186018101516040868401015201611098565b506000604082850101526040601f19601f83011684010191505092915050565b6000602082840312156110e757600080fd5b5035919050565b60006020828403121561110057600080fd5b61110982611041565b9392505050565b60006020828403121561112257600080fd5b813567ffffffffffffffff81111561113957600080fd5b8201601f8101841361114a57600080fd5b803567ffffffffffffffff81111561116457611164610eca565b604051601f8201601f19908116603f0116810167ffffffffffffffff8111828210171561119357611193610eca565b6040528181528282016020018610156111ab57600080fd5b81602084016020830137600091810160200191909152949350505050565b8082028115828204841417610cfb57610cfb610ea156fe77697468647261774e6174697665546f6b656e46726f6d5265496e737572616e6365506f6f6c6465706f7369744552433230546f6b656e496e746f5265496e737572616e6365506f6f6c646973747269627574654e6174697665546f6b656e496e746f496e737572616e6365506f6f6c6465706f7369744e6174697665546f6b656e496e746f5265496e737572616e6365506f6f6c77697468647261774552433230546f6b656e46726f6d5265496e737572616e6365506f6f6ca2646970667358221220c47495b0dc0db36e255fc3a68f894033b71b5f03ec97f4c0df1cf0baedede34964736f6c634300081c0033",
        "linkReferences": {}
    },
    "methodIdentifiers": {
        "checkpoint(string)": "6697a925",
        "checkpointCounts(address)": "c0a32996",
        "checkpoints(address,uint256)": "0cdfebfa",
        "depositERC20TokenIntoReInsurancePool()": "89a37651",
        "depositNativeTokenIntoReInsurancePool()": "e214f8c6",
        "depositedAmounts(address)": "d4b73972",
        "depositers(address)": "6384c045",
        "deregisterAsDepositer()": "c1bdf40e",
        "distributeNativeTokenIntoInsurancePool(address,uint256)": "df78b262",
        "getCheckpoint(uint256)": "20fc4881",
        "getContractBalance()": "6f9fb98a",
        "getRewards()": "0572b0cc",
        "registerAsDepositer()": "91781cba",
        "testFunctionForCheckPoint()": "8099b3f5",
        "version()": "54fd4d50",
        "withdrawERC20TokenFromReInsurancePool()": "ccf565d9",
        "withdrawNativeTokenFromReInsurancePool()": "064cd549"
    },
    "id": 1
}