{
    "abi": [
        {
            "type": "constructor",
            "inputs": [],
            "stateMutability": "nonpayable"
        },
        {
            "type": "fallback",
            "stateMutability": "payable"
        },
        {
            "type": "receive",
            "stateMutability": "payable"
        },
        {
            "type": "function",
            "name": "USDC_ADDRESS_ON_BASE_MAINNET",
            "inputs": [],
            "outputs": [
                {
                    "name": "",
                    "type": "address",
                    "internalType": "address"
                }
            ],
            "stateMutability": "view"
        },
        {
            "type": "function",
            "name": "addToSixtyThree",
            "inputs": [
                {
                    "name": "methodName",
                    "type": "string",
                    "internalType": "string"
                }
            ],
            "outputs": [
                {
                    "name": "",
                    "type": "bool",
                    "internalType": "bool"
                }
            ],
            "stateMutability": "nonpayable"
        },
        {
            "type": "function",
            "name": "checkpoint",
            "inputs": [
                {
                    "name": "methodName",
                    "type": "string",
                    "internalType": "string"
                }
            ],
            "outputs": [
                {
                    "name": "",
                    "type": "bool",
                    "internalType": "bool"
                }
            ],
            "stateMutability": "nonpayable"
        },
        {
            "type": "function",
            "name": "checkpointCounts",
            "inputs": [
                {
                    "name": "user",
                    "type": "address",
                    "internalType": "address"
                }
            ],
            "outputs": [
                {
                    "name": "checkpointCount",
                    "type": "uint256",
                    "internalType": "uint256"
                }
            ],
            "stateMutability": "view"
        },
        {
            "type": "function",
            "name": "checkpoints",
            "inputs": [
                {
                    "name": "",
                    "type": "address",
                    "internalType": "address"
                },
                {
                    "name": "",
                    "type": "uint256",
                    "internalType": "uint256"
                }
            ],
            "outputs": [
                {
                    "name": "",
                    "type": "string",
                    "internalType": "string"
                }
            ],
            "stateMutability": "view"
        },
        {
            "type": "function",
            "name": "depositERC20TokenIntoReInsurancePool",
            "inputs": [],
            "outputs": [
                {
                    "name": "",
                    "type": "bool",
                    "internalType": "bool"
                }
            ],
            "stateMutability": "nonpayable"
        },
        {
            "type": "function",
            "name": "depositNativeTokenIntoReInsurancePool",
            "inputs": [],
            "outputs": [
                {
                    "name": "",
                    "type": "bool",
                    "internalType": "bool"
                }
            ],
            "stateMutability": "payable"
        },
        {
            "type": "function",
            "name": "depositedAmounts",
            "inputs": [
                {
                    "name": "",
                    "type": "address",
                    "internalType": "address"
                }
            ],
            "outputs": [
                {
                    "name": "",
                    "type": "uint256",
                    "internalType": "uint256"
                }
            ],
            "stateMutability": "view"
        },
        {
            "type": "function",
            "name": "depositers",
            "inputs": [
                {
                    "name": "",
                    "type": "address",
                    "internalType": "address"
                }
            ],
            "outputs": [
                {
                    "name": "",
                    "type": "bool",
                    "internalType": "bool"
                }
            ],
            "stateMutability": "view"
        },
        {
            "type": "function",
            "name": "deregisterAsDepositer",
            "inputs": [],
            "outputs": [
                {
                    "name": "",
                    "type": "bool",
                    "internalType": "bool"
                }
            ],
            "stateMutability": "nonpayable"
        },
        {
            "type": "function",
            "name": "distributeNativeTokenIntoInsurancePool",
            "inputs": [
                {
                    "name": "insurancePool",
                    "type": "address",
                    "internalType": "address"
                },
                {
                    "name": "amount",
                    "type": "uint256",
                    "internalType": "uint256"
                }
            ],
            "outputs": [
                {
                    "name": "",
                    "type": "bool",
                    "internalType": "bool"
                }
            ],
            "stateMutability": "payable"
        },
        {
            "type": "function",
            "name": "getCheckpoint",
            "inputs": [
                {
                    "name": "timestamp",
                    "type": "uint256",
                    "internalType": "uint256"
                }
            ],
            "outputs": [
                {
                    "name": "_methodName",
                    "type": "string",
                    "internalType": "string"
                }
            ],
            "stateMutability": "view"
        },
        {
            "type": "function",
            "name": "getNativeETHBalanceOfContract",
            "inputs": [],
            "outputs": [
                {
                    "name": "",
                    "type": "uint256",
                    "internalType": "uint256"
                }
            ],
            "stateMutability": "view"
        },
        {
            "type": "function",
            "name": "getRewards",
            "inputs": [],
            "outputs": [
                {
                    "name": "",
                    "type": "bool",
                    "internalType": "bool"
                }
            ],
            "stateMutability": "view"
        },
        {
            "type": "function",
            "name": "getUSDCBalanceOfContract",
            "inputs": [],
            "outputs": [
                {
                    "name": "",
                    "type": "uint256",
                    "internalType": "uint256"
                }
            ],
            "stateMutability": "view"
        },
        {
            "type": "function",
            "name": "registerAsDepositer",
            "inputs": [],
            "outputs": [
                {
                    "name": "",
                    "type": "bool",
                    "internalType": "bool"
                }
            ],
            "stateMutability": "nonpayable"
        },
        {
            "type": "function",
            "name": "testFunctionForCheckPoint",
            "inputs": [],
            "outputs": [
                {
                    "name": "",
                    "type": "bool",
                    "internalType": "bool"
                }
            ],
            "stateMutability": "nonpayable"
        },
        {
            "type": "function",
            "name": "usdc",
            "inputs": [],
            "outputs": [
                {
                    "name": "",
                    "type": "address",
                    "internalType": "contract IERC20"
                }
            ],
            "stateMutability": "view"
        },
        {
            "type": "function",
            "name": "version",
            "inputs": [],
            "outputs": [
                {
                    "name": "",
                    "type": "string",
                    "internalType": "string"
                }
            ],
            "stateMutability": "view"
        },
        {
            "type": "function",
            "name": "withdrawERC20TokenFromReInsurancePool",
            "inputs": [],
            "outputs": [
                {
                    "name": "",
                    "type": "bool",
                    "internalType": "bool"
                }
            ],
            "stateMutability": "nonpayable"
        },
        {
            "type": "function",
            "name": "withdrawNativeTokenFromReInsurancePool",
            "inputs": [],
            "outputs": [
                {
                    "name": "",
                    "type": "bool",
                    "internalType": "bool"
                }
            ],
            "stateMutability": "nonpayable"
        }
    ],
    "bytecode": {
        "object": "0x608060405234801561001057600080fd5b50604080518082019091526007815266302e36322e393960c81b602082015260069061003c9082610117565b506001805473833589fcd6edb6e08f4c7c32d4f71b54bda029136001600160a01b031991821681179092556000805490911690911790556101d5565b634e487b7160e01b600052604160045260246000fd5b600181811c908216806100a257607f821691505b6020821081036100c257634e487b7160e01b600052602260045260246000fd5b50919050565b601f82111561011257806000526020600020601f840160051c810160208510156100ef5750805b601f840160051c820191505b8181101561010f57600081556001016100fb565b50505b505050565b81516001600160401b0381111561013057610130610078565b6101448161013e845461008e565b846100c8565b6020601f82116001811461017857600083156101605750848201515b600019600385901b1c1916600184901b17845561010f565b600084815260208120601f198516915b828110156101a85787850151825560209485019460019092019101610188565b50848210156101c65786840151600019600387901b60f8161c191681555b50505050600190811b01905550565b611472806101e46000396000f3fe60806040526004361061012e5760003560e01c806374803c4b116100ab578063c0a329961161006f578063c0a3299614610495578063c1bdf40e146104c2578063ccf565d9146104d7578063d4b73972146104ec578063df78b26214610519578063e214f8c61461052c57610208565b806374803c4b146104235780638099b3f51461044357806389a376511461045857806391781cba1461046d578063b84d9e861461048257610208565b80634a055314116100f25780634a0553141461037b57806354fd4d501461039e578063603afdfe146103b35780636384c045146103d35780636697a9251461040357610208565b80630572b0cc146102b7578063064cd549146102e15780630cdfebfa146102f657806320fc4881146103235780633e413bee1461034357610208565b36610208576000341161017f5760405162461bcd60e51b815260206004820152601460248201527326bab9ba1039b2b7321039b7b6b29022ba3432b960611b60448201526064015b60405180910390fd5b336000908152600560205260408120805434929061019e908490611040565b909155505060408051808201825260078152667265636569766560c81b6020808301919091523360009081526002825283812042825290915291909120906101e690826110f2565b50336000908152600360205260408120805491610202836111b1565b91905055005b6000341161024f5760405162461bcd60e51b815260206004820152601460248201527326bab9ba1039b2b7321039b7b6b29022ba3432b960611b6044820152606401610176565b336000908152600560205260408120805434929061026e908490611040565b9091555050604080518082018252600881526766616c6c6261636b60c01b6020808301919091523360009081526002825283812042825290915291909120906101e690826110f2565b3480156102c357600080fd5b506102cc610534565b60405190151581526020015b60405180910390f35b3480156102ed57600080fd5b506102cc6105a2565b34801561030257600080fd5b506103166103113660046111e6565b610777565b6040516102d89190611210565b34801561032f57600080fd5b5061031661033e36600461125e565b61081c565b34801561034f57600080fd5b50600054610363906001600160a01b031681565b6040516001600160a01b0390911681526020016102d8565b34801561038757600080fd5b506103906108ca565b6040519081526020016102d8565b3480156103aa57600080fd5b5061031661093c565b3480156103bf57600080fd5b50600154610363906001600160a01b031681565b3480156103df57600080fd5b506102cc6103ee366004611277565b60046020526000908152604090205460ff1681565b34801561040f57600080fd5b506102cc61041e366004611299565b610949565b34801561042f57600080fd5b506102cc61043e366004611299565b6109de565b34801561044f57600080fd5b506102cc610a28565b34801561046457600080fd5b506102cc610aa8565b34801561047957600080fd5b506102cc610ae8565b34801561048e57600080fd5b5047610390565b3480156104a157600080fd5b506103906104b0366004611277565b60036020526000908152604090205481565b3480156104ce57600080fd5b506102cc610bbb565b3480156104e357600080fd5b506102cc610c87565b3480156104f857600080fd5b50610390610507366004611277565b60056020526000908152604090205481565b6102cc6105273660046111e6565b610cc7565b6102cc610e88565b336000908152600360205260408120548190610551906001611352565b90506000811161059a5760405162461bcd60e51b81526020600482015260146024820152734e6f207265776172647320617661696c61626c6560601b6044820152606401610176565b600191505090565b3360009081526004602052604081205460ff166106015760405162461bcd60e51b815260206004820152601760248201527f596f7520617265206e6f742061206465706f73697465720000000000000000006044820152606401610176565b3360009081526005602052604090205461066e5760405162461bcd60e51b815260206004820152602860248201527f596f752068617665206e6f206465706f736974656420616d6f756e7420746f20604482015267776974686472617760c01b6064820152608401610176565b33600081815260056020526040808220805490839055905190929190829084908381818185875af1925050503d80600081146106c6576040519150601f19603f3d011682016040523d82523d6000602084013e6106cb565b606091505b505090508061070e5760405162461bcd60e51b815260206004820152600f60248201526e15da5d1a191c985dc819985a5b1959608a1b6044820152606401610176565b6040518060600160405280602681526020016113836026913933600090815260026020908152604080832042845290915290209061074c90826110f2565b50336000908152600360205260408120805491610768836111b1565b91905055506001935050505090565b60026020908152600092835260408084209091529082529020805461079b90611069565b80601f01602080910402602001604051908101604052809291908181526020018280546107c790611069565b80156108145780601f106107e957610100808354040283529160200191610814565b820191906000526020600020905b8154815290600101906020018083116107f757829003601f168201915b505050505081565b336000908152600260209081526040808320848452909152902080546060919061084590611069565b80601f016020809104026020016040519081016040528092919081815260200182805461087190611069565b80156108be5780601f10610893576101008083540402835291602001916108be565b820191906000526020600020905b8154815290600101906020018083116108a157829003601f168201915b50505050509050919050565b600080546040516370a0823160e01b81523060048201526001600160a01b03909116906370a0823190602401602060405180830381865afa158015610913573d6000803e3d6000fd5b505050506040513d601f19601f820116820180604052508101906109379190611369565b905090565b6006805461079b90611069565b336000908152600260209081526040808320428452909152812061096d83826110f2565b50604080518082018252600b81526a636865636b706f696e747360a81b6020808301919091523360009081526002825283812042825290915291909120906109b590826110f2565b503360009081526003602052604081208054916109d1836111b1565b9091555060019392505050565b604080518082018252600f81526e616464546f5369787479546872656560881b60208083019190915233600090815260028252838120428252909152918220906109b590826110f2565b604080518082018252601981527f7465737446756e6374696f6e466f72436865636b506f696e74000000000000006020808301919091523360009081526002825283812042825290915291822090610a8090826110f2565b50336000908152600360205260408120805491610a9c836111b1565b91905055506001905090565b60006040518060600160405280602481526020016113a960249139336000908152600260209081526040808320428452909152902090610a8090826110f2565b3360009081526004602052604081205460ff1615610b5b5760405162461bcd60e51b815260206004820152602a60248201527f596f75206861766520616c726561647920726567697374657265642061732061604482015269103232b837b9b4ba32b960b11b6064820152608401610176565b336000818152600460209081526040808320805460ff191660011790558051808201825260138152723932b3b4b9ba32b920b9a232b837b9b4ba32b960691b8184015293835260028252808320428452909152902090610a8090826110f2565b3360009081526004602052604081205460ff16610c285760405162461bcd60e51b815260206004820152602560248201527f596f7520617265206e6f7420726567697374657265642061732061206465706f60448201526439b4ba32b960d91b6064820152608401610176565b336000818152600460209081526040808320805460ff191690558051808201825260158152743232b932b3b4b9ba32b920b9a232b837b9b4ba32b960591b8184015293835260028252808320428452909152902090610a8090826110f2565b600060405180606001604052806025815260200161141860259139336000908152600260209081526040808320428452909152902090610a8090826110f2565b6000808211610d185760405162461bcd60e51b815260206004820152601d60248201527f416d6f756e74206d7573742062652067726561746572207468616e20300000006044820152606401610176565b81471015610d685760405162461bcd60e51b815260206004820152601f60248201527f496e73756666696369656e742062616c616e636520746f206465706f736974006044820152606401610176565b6000836001600160a01b03168360405160006040518083038185875af1925050503d8060008114610db5576040519150601f19603f3d011682016040523d82523d6000602084013e610dba565b606091505b5050905080610e1d5760405162461bcd60e51b815260206004820152602960248201527f446973747269627574696f6e20746f2074686520696e737572616e636520706f6044820152681bdb0819985a5b195960ba1b6064820152608401610176565b6040518060600160405280602681526020016113cd60269139336000908152600260209081526040808320428452909152902090610e5b90826110f2565b50336000908152600360205260408120805491610e77836111b1565b919050555060019150505b92915050565b6000803411610ed95760405162461bcd60e51b815260206004820152601d60248201527f416d6f756e74206d7573742062652067726561746572207468616e20300000006044820152606401610176565b3433311015610f2a5760405162461bcd60e51b815260206004820152601f60248201527f496e73756666696369656e742062616c616e636520746f206465706f736974006044820152606401610176565b33600090815260056020526040808220349081905590513091908381818185875af1925050503d8060008114610f7c576040519150601f19603f3d011682016040523d82523d6000602084013e610f81565b606091505b5050905080610fc35760405162461bcd60e51b815260206004820152600e60248201526d11195c1bdcda5d0819985a5b195960921b6044820152606401610176565b6040518060600160405280602581526020016113f36025913933600090815260026020908152604080832042845290915290209061100190826110f2565b5033600090815260036020526040812080549161101d836111b1565b9190505550600191505090565b634e487b7160e01b600052601160045260246000fd5b80820180821115610e8257610e8261102a565b634e487b7160e01b600052604160045260246000fd5b600181811c9082168061107d57607f821691505b60208210810361109d57634e487b7160e01b600052602260045260246000fd5b50919050565b601f8211156110ed57806000526020600020601f840160051c810160208510156110ca5750805b601f840160051c820191505b818110156110ea57600081556001016110d6565b50505b505050565b815167ffffffffffffffff81111561110c5761110c611053565b6111208161111a8454611069565b846110a3565b6020601f821160018114611154576000831561113c5750848201515b600019600385901b1c1916600184901b1784556110ea565b600084815260208120601f198516915b828110156111845787850151825560209485019460019092019101611164565b50848210156111a25786840151600019600387901b60f8161c191681555b50505050600190811b01905550565b6000600182016111c3576111c361102a565b5060010190565b80356001600160a01b03811681146111e157600080fd5b919050565b600080604083850312156111f957600080fd5b611202836111ca565b946020939093013593505050565b602081526000825180602084015260005b8181101561123e5760208186018101516040868401015201611221565b506000604082850101526040601f19601f83011684010191505092915050565b60006020828403121561127057600080fd5b5035919050565b60006020828403121561128957600080fd5b611292826111ca565b9392505050565b6000602082840312156112ab57600080fd5b813567ffffffffffffffff8111156112c257600080fd5b8201601f810184136112d357600080fd5b803567ffffffffffffffff8111156112ed576112ed611053565b604051601f8201601f19908116603f0116810167ffffffffffffffff8111828210171561131c5761131c611053565b60405281815282820160200186101561133457600080fd5b81602084016020830137600091810160200191909152949350505050565b8082028115828204841417610e8257610e8261102a565b60006020828403121561137b57600080fd5b505191905056fe77697468647261774e6174697665546f6b656e46726f6d5265496e737572616e6365506f6f6c6465706f7369744552433230546f6b656e496e746f5265496e737572616e6365506f6f6c646973747269627574654e6174697665546f6b656e496e746f496e737572616e6365506f6f6c6465706f7369744e6174697665546f6b656e496e746f5265496e737572616e6365506f6f6c77697468647261774552433230546f6b656e46726f6d5265496e737572616e6365506f6f6ca2646970667358221220bbbc4a2fa14cbf05abb8b5f8895c82a62a49b09b88942bd310fd6edb764c9ebd64736f6c634300081c0033",
        "linkReferences": {}
    },
    "methodIdentifiers": {
        "USDC_ADDRESS_ON_BASE_MAINNET()": "603afdfe",
        "addToSixtyThree(string)": "74803c4b",
        "checkpoint(string)": "6697a925",
        "checkpointCounts(address)": "c0a32996",
        "checkpoints(address,uint256)": "0cdfebfa",
        "depositERC20TokenIntoReInsurancePool()": "89a37651",
        "depositNativeTokenIntoReInsurancePool()": "e214f8c6",
        "depositedAmounts(address)": "d4b73972",
        "depositers(address)": "6384c045",
        "deregisterAsDepositer()": "c1bdf40e",
        "distributeNativeTokenIntoInsurancePool(address,uint256)": "df78b262",
        "getCheckpoint(uint256)": "20fc4881",
        "getNativeETHBalanceOfContract()": "b84d9e86",
        "getRewards()": "0572b0cc",
        "getUSDCBalanceOfContract()": "4a055314",
        "registerAsDepositer()": "91781cba",
        "testFunctionForCheckPoint()": "8099b3f5",
        "usdc()": "3e413bee",
        "version()": "54fd4d50",
        "withdrawERC20TokenFromReInsurancePool()": "ccf565d9",
        "withdrawNativeTokenFromReInsurancePool()": "064cd549"
    },
    "id": 1
}