{
    "abi": [
        {
            "type": "constructor",
            "inputs": [
                {
                    "name": "_insuranceClaimProofVerifier",
                    "type": "address",
                    "internalType": "contract InsuranceClaimProofVerifier"
                },
                {
                    "name": "_reInsurancePool",
                    "type": "address",
                    "internalType": "contract ReInsurancePool"
                }
            ],
            "stateMutability": "nonpayable"
        },
        {
            "type": "fallback",
            "stateMutability": "payable"
        },
        {
            "type": "receive",
            "stateMutability": "payable"
        },
        {
            "type": "function",
            "name": "approveInsuranceClaimAndEscrowPayment",
            "inputs": [
                {
                    "name": "claimant",
                    "type": "address",
                    "internalType": "address"
                },
                {
                    "name": "isUseFundFromReInsurancePool",
                    "type": "bool",
                    "internalType": "bool"
                }
            ],
            "outputs": [
                {
                    "name": "",
                    "type": "bool",
                    "internalType": "bool"
                }
            ],
            "stateMutability": "nonpayable"
        },
        {
            "type": "function",
            "name": "approvedClaims",
            "inputs": [
                {
                    "name": "",
                    "type": "address",
                    "internalType": "address"
                },
                {
                    "name": "",
                    "type": "address",
                    "internalType": "address"
                }
            ],
            "outputs": [
                {
                    "name": "",
                    "type": "bool",
                    "internalType": "bool"
                }
            ],
            "stateMutability": "view"
        },
        {
            "type": "function",
            "name": "checkpoint",
            "inputs": [
                {
                    "name": "methodName",
                    "type": "string",
                    "internalType": "string"
                }
            ],
            "outputs": [
                {
                    "name": "",
                    "type": "bool",
                    "internalType": "bool"
                }
            ],
            "stateMutability": "nonpayable"
        },
        {
            "type": "function",
            "name": "checkpointCounts",
            "inputs": [
                {
                    "name": "user",
                    "type": "address",
                    "internalType": "address"
                }
            ],
            "outputs": [
                {
                    "name": "checkpointCount",
                    "type": "uint256",
                    "internalType": "uint256"
                }
            ],
            "stateMutability": "view"
        },
        {
            "type": "function",
            "name": "checkpointOfStakings",
            "inputs": [
                {
                    "name": "",
                    "type": "address",
                    "internalType": "address"
                }
            ],
            "outputs": [
                {
                    "name": "",
                    "type": "uint256",
                    "internalType": "uint256"
                }
            ],
            "stateMutability": "view"
        },
        {
            "type": "function",
            "name": "checkpoints",
            "inputs": [
                {
                    "name": "",
                    "type": "address",
                    "internalType": "address"
                },
                {
                    "name": "",
                    "type": "uint256",
                    "internalType": "uint256"
                }
            ],
            "outputs": [
                {
                    "name": "",
                    "type": "string",
                    "internalType": "string"
                }
            ],
            "stateMutability": "view"
        },
        {
            "type": "function",
            "name": "claimRequests",
            "inputs": [
                {
                    "name": "",
                    "type": "address",
                    "internalType": "address"
                },
                {
                    "name": "",
                    "type": "address",
                    "internalType": "address"
                }
            ],
            "outputs": [
                {
                    "name": "",
                    "type": "bool",
                    "internalType": "bool"
                }
            ],
            "stateMutability": "view"
        },
        {
            "type": "function",
            "name": "claimants",
            "inputs": [
                {
                    "name": "",
                    "type": "address",
                    "internalType": "address"
                }
            ],
            "outputs": [
                {
                    "name": "",
                    "type": "bool",
                    "internalType": "bool"
                }
            ],
            "stateMutability": "view"
        },
        {
            "type": "function",
            "name": "deregisterAsClaimant",
            "inputs": [],
            "outputs": [
                {
                    "name": "",
                    "type": "bool",
                    "internalType": "bool"
                }
            ],
            "stateMutability": "nonpayable"
        },
        {
            "type": "function",
            "name": "deregisterAsInsurer",
            "inputs": [],
            "outputs": [
                {
                    "name": "",
                    "type": "bool",
                    "internalType": "bool"
                }
            ],
            "stateMutability": "nonpayable"
        },
        {
            "type": "function",
            "name": "deregisterAsStaker",
            "inputs": [],
            "outputs": [
                {
                    "name": "",
                    "type": "bool",
                    "internalType": "bool"
                }
            ],
            "stateMutability": "nonpayable"
        },
        {
            "type": "function",
            "name": "getContractBalance",
            "inputs": [],
            "outputs": [
                {
                    "name": "",
                    "type": "uint256",
                    "internalType": "uint256"
                }
            ],
            "stateMutability": "view"
        },
        {
            "type": "function",
            "name": "insuranceClaimProofVerifier",
            "inputs": [],
            "outputs": [
                {
                    "name": "",
                    "type": "address",
                    "internalType": "contract InsuranceClaimProofVerifier"
                }
            ],
            "stateMutability": "view"
        },
        {
            "type": "function",
            "name": "insurers",
            "inputs": [
                {
                    "name": "",
                    "type": "address",
                    "internalType": "address"
                }
            ],
            "outputs": [
                {
                    "name": "",
                    "type": "bool",
                    "internalType": "bool"
                }
            ],
            "stateMutability": "view"
        },
        {
            "type": "function",
            "name": "reInsurancePool",
            "inputs": [],
            "outputs": [
                {
                    "name": "",
                    "type": "address",
                    "internalType": "contract ReInsurancePool"
                }
            ],
            "stateMutability": "view"
        },
        {
            "type": "function",
            "name": "reclaimProtocolVerifier",
            "inputs": [],
            "outputs": [
                {
                    "name": "",
                    "type": "address",
                    "internalType": "contract ReclaimProtocolVerifier"
                }
            ],
            "stateMutability": "view"
        },
        {
            "type": "function",
            "name": "registerAsClaimant",
            "inputs": [],
            "outputs": [
                {
                    "name": "",
                    "type": "bool",
                    "internalType": "bool"
                }
            ],
            "stateMutability": "nonpayable"
        },
        {
            "type": "function",
            "name": "registerAsInsurer",
            "inputs": [],
            "outputs": [
                {
                    "name": "",
                    "type": "bool",
                    "internalType": "bool"
                }
            ],
            "stateMutability": "nonpayable"
        },
        {
            "type": "function",
            "name": "registerAsStaker",
            "inputs": [],
            "outputs": [
                {
                    "name": "",
                    "type": "bool",
                    "internalType": "bool"
                }
            ],
            "stateMutability": "nonpayable"
        },
        {
            "type": "function",
            "name": "stakeERC20TokenIntoReInsurancePool",
            "inputs": [],
            "outputs": [
                {
                    "name": "",
                    "type": "bool",
                    "internalType": "bool"
                }
            ],
            "stateMutability": "nonpayable"
        },
        {
            "type": "function",
            "name": "stakeNativeTokenIntoInsurancePool",
            "inputs": [],
            "outputs": [
                {
                    "name": "",
                    "type": "bool",
                    "internalType": "bool"
                }
            ],
            "stateMutability": "payable"
        },
        {
            "type": "function",
            "name": "stakedAmounts",
            "inputs": [
                {
                    "name": "",
                    "type": "address",
                    "internalType": "address"
                }
            ],
            "outputs": [
                {
                    "name": "",
                    "type": "uint256",
                    "internalType": "uint256"
                }
            ],
            "stateMutability": "view"
        },
        {
            "type": "function",
            "name": "stakers",
            "inputs": [
                {
                    "name": "",
                    "type": "address",
                    "internalType": "address"
                }
            ],
            "outputs": [
                {
                    "name": "",
                    "type": "bool",
                    "internalType": "bool"
                }
            ],
            "stateMutability": "view"
        },
        {
            "type": "function",
            "name": "submitInsuranceClaim",
            "inputs": [
                {
                    "name": "proof",
                    "type": "bytes",
                    "internalType": "bytes"
                },
                {
                    "name": "publicInputs",
                    "type": "bytes32[]",
                    "internalType": "bytes32[]"
                },
                {
                    "name": "insurer",
                    "type": "address",
                    "internalType": "address"
                }
            ],
            "outputs": [
                {
                    "name": "",
                    "type": "bool",
                    "internalType": "bool"
                }
            ],
            "stateMutability": "nonpayable"
        },
        {
            "type": "function",
            "name": "testFunctionForCheckPoint",
            "inputs": [],
            "outputs": [
                {
                    "name": "",
                    "type": "bool",
                    "internalType": "bool"
                }
            ],
            "stateMutability": "nonpayable"
        },
        {
            "type": "function",
            "name": "unstakeERC20TokenFromReInsurancePool",
            "inputs": [],
            "outputs": [
                {
                    "name": "",
                    "type": "bool",
                    "internalType": "bool"
                }
            ],
            "stateMutability": "nonpayable"
        },
        {
            "type": "function",
            "name": "unstakeNativeTokenFromInsurancePool",
            "inputs": [],
            "outputs": [
                {
                    "name": "",
                    "type": "bool",
                    "internalType": "bool"
                }
            ],
            "stateMutability": "nonpayable"
        },
        {
            "type": "function",
            "name": "version",
            "inputs": [],
            "outputs": [
                {
                    "name": "",
                    "type": "string",
                    "internalType": "string"
                }
            ],
            "stateMutability": "view"
        }
    ],
    "bytecode": {
        "object": "0x608060405234801561001057600080fd5b5060405161206338038061206383398101604081905261002f916100a9565b600180546001600160a01b038085166001600160a01b0319928316179092556002805492841692909116919091179055604080518082019091526006815265302e322e333360d01b60208201526000906100899082610182565b505050610240565b6001600160a01b03811681146100a657600080fd5b50565b600080604083850312156100bc57600080fd5b82516100c781610091565b60208401519092506100d881610091565b809150509250929050565b634e487b7160e01b600052604160045260246000fd5b600181811c9082168061010d57607f821691505b60208210810361012d57634e487b7160e01b600052602260045260246000fd5b50919050565b601f82111561017d57806000526020600020601f840160051c8101602085101561015a5750805b601f840160051c820191505b8181101561017a5760008155600101610166565b50505b505050565b81516001600160401b0381111561019b5761019b6100e3565b6101af816101a984546100f9565b84610133565b6020601f8211600181146101e357600083156101cb5750848201515b600019600385901b1c1916600184901b17845561017a565b600084815260208120601f198516915b8281101561021357878501518255602094850194600190920191016101f3565b50848210156102315786840151600019600387901b60f8161c191681555b50505050600190811b01905550565b611e148061024f6000396000f3fe6080604052600436106101bb5760003560e01c8063782d13b3116100ec5780639a23bfa51161008a578063c0a3299611610064578063c0a3299614610664578063de45aeef14610691578063f5603c07146106c1578063fb9316fa146106c957610275565b80639a23bfa51461061a578063a6a721af1461062f578063aa3f6cdd1461064f57610275565b80638099b3f5116100c65780638099b3f51461056d57806386a74843146105825780638d68dd61146105af5780639168ae72146105ea57610275565b8063782d13b3146105085780637d8440ea1461051d578063801cdf011461053257610275565b80632481f598116101595780636697a925116101335780636697a925146104ab57806369b76ed9146104cb5780636f9fb98a146104e0578063767d5679146104f357610275565b80632481f5981461045657806354fd4d501461047657806366717ca11461048b57610275565b806317d1bd2b1161019557806317d1bd2b146103d4578063186667131461040c5780631c407d92146104215780632283cf291461044157610275565b80630cdfebfa1461032357806310c1c10314610359578063171c41af1461039457610275565b36610275576000341161020c5760405162461bcd60e51b815260206004820152601460248201527326bab9ba1039b2b7321039b7b6b29022ba3432b960611b60448201526064015b60405180910390fd5b336000908152600c60205260408120805434929061022b9084906117b3565b909155505060408051808201825260078152667265636569766560c81b6020808301919091523360009081526008825283812042825290915291909120906102739082611865565b005b600034116102bc5760405162461bcd60e51b815260206004820152601460248201527326bab9ba1039b2b7321039b7b6b29022ba3432b960611b6044820152606401610203565b336000908152600c6020526040812080543492906102db9084906117b3565b909155505060408051808201825260088082526766616c6c6261636b60c01b602080840191909152336000908152918152838220428352905291909120906102739082611865565b34801561032f57600080fd5b5061034361033e366004611940565b6106de565b604051610350919061196a565b60405180910390f35b34801561036557600080fd5b506103866103743660046119b8565b600c6020526000908152604090205481565b604051908152602001610350565b3480156103a057600080fd5b506103c46103af3660046119b8565b60056020526000908152604090205460ff1681565b6040519015158152602001610350565b3480156103e057600080fd5b506003546103f4906001600160a01b031681565b6040516001600160a01b039091168152602001610350565b34801561041857600080fd5b506103c4610783565b34801561042d57600080fd5b506001546103f4906001600160a01b031681565b34801561044d57600080fd5b506103c461087c565b34801561046257600080fd5b506103c4610471366004611a26565b6108bc565b34801561048257600080fd5b50610343610af6565b34801561049757600080fd5b506002546103f4906001600160a01b031681565b3480156104b757600080fd5b506103c46104c6366004611adb565b610b03565b3480156104d757600080fd5b506103c4610b97565b3480156104ec57600080fd5b5047610386565b3480156104ff57600080fd5b506103c4610c24565b34801561051457600080fd5b506103c4610c64565b34801561052957600080fd5b506103c4610d34565b34801561053e57600080fd5b506103c461054d366004611b94565b600760209081526000928352604080842090915290825290205460ff1681565b34801561057957600080fd5b506103c4610eca565b34801561058e57600080fd5b5061038661059d3660046119b8565b600a6020526000908152604090205481565b3480156105bb57600080fd5b506103c46105ca366004611b94565b600660209081526000928352604080842090915290825290205460ff1681565b3480156105f657600080fd5b506103c46106053660046119b8565b600b6020526000908152604090205460ff1681565b34801561062657600080fd5b506103c4610f22565b34801561063b57600080fd5b506103c461064a366004611bd8565b61101f565b34801561065b57600080fd5b506103c46114a9565b34801561067057600080fd5b5061038661067f3660046119b8565b60096020526000908152604090205481565b34801561069d57600080fd5b506103c46106ac3660046119b8565b60046020526000908152604090205460ff1681565b6103c4611535565b3480156106d557600080fd5b506103c46116d1565b600860209081526000928352604080842090915290825290208054610702906117dc565b80601f016020809104026020016040519081016040528092919081815260200182805461072e906117dc565b801561077b5780601f106107505761010080835404028352916020019161077b565b820191906000526020600020905b81548152906001019060200180831161075e57829003601f168201915b505050505081565b3360009081526005602052604081205460ff16156107f55760405162461bcd60e51b815260206004820152602960248201527f596f75206861766520616c7265616479207265676973746572656420617320616044820152680818db185a5b585b9d60ba1b6064820152608401610203565b336000818152600560209081526040808320805460ff191660011790558051808201825260128152711c9959da5cdd195c905cd0db185a5b585b9d60721b81840152938352600882528083204284529091529020906108549082611865565b5033600090815260096020526040812080549161087083611c0f565b91905055506001905090565b6000604051806060016040528060228152602001611d74602291393360009081526008602090815260408083204284529091529020906108549082611865565b3360009081526005602052604081205460ff166108eb5760405162461bcd60e51b815260040161020390611c28565b6001600160a01b038216330361097e5760405162461bcd60e51b815260206004820152604c60248201527f596f752c2077686f206973206120636c61696d616e742c2063616e6e6f74207360448201527f75626d6974206120636c61696d20746f20796f757273656c662c20776869636860648201526b1034b990309034b9b9bab2b960a11b608482015260a401610203565b60015460405163279c891160e01b81526000916001600160a01b03169063279c8911906109b5908a908a908a908a90600401611c6c565b602060405180830381865afa1580156109d2573d6000803e3d6000fd5b505050506040513d601f19601f820116820180604052508101906109f69190611cd0565b905080610a565760405162461bcd60e51b815260206004820152602860248201527f4120676976656e20496e737572616e6365436c61696d50726f6f66206973206e6044820152671bdd081d985b1a5960c21b6064820152608401610203565b6001600160a01b038316600090815260066020908152604080832033808552908352818420805460ff191660011790558151808301835260148152737375626d6974496e737572616e6365436c61696d60601b818501529084526008835281842042855290925290912090610acb9082611865565b50336000908152600960205260408120805491610ae783611c0f565b91905055505095945050505050565b60008054610702906117dc565b3360009081526008602090815260408083204284529091528120610b278382611865565b50604080518082018252600a81526918da1958dadc1bda5b9d60b21b602080830191909152336000908152600882528381204282529091529190912090610b6e9082611865565b50336000908152600960205260408120805491610b8a83611c0f565b9091555060019392505050565b3360009081526005602052604081205460ff16610bc65760405162461bcd60e51b815260040161020390611c28565b336000818152600560209081526040808320805460ff1916905580518082018252601481527319195c9959da5cdd195c905cd0db185a5b585b9d60621b81840152938352600882528083204284529091529020906108549082611865565b6000604051806060016040528060248152602001611dbb602491393360009081526008602090815260408083204284529091529020906108549082611865565b3360009081526004602052604081205460ff1615610cd65760405162461bcd60e51b815260206004820152602960248201527f596f75206861766520616c726561647920726567697374657265642061732061604482015268371034b739bab932b960b91b6064820152608401610203565b336000818152600460209081526040808320805460ff191660011790558051808201825260118152703932b3b4b9ba32b920b9a4b739bab932b960791b81840152938352600882528083204284529091529020906108549082611865565b336000908152600a60209081526040808320429055600b90915281205460ff16610d975760405162461bcd60e51b81526020600482015260146024820152732cb7ba9030b932903737ba10309039ba30b5b2b960611b6044820152606401610203565b336000908152600c6020526040902054610e015760405162461bcd60e51b815260206004820152602560248201527f596f752068617665206e6f207374616b656420616d6f756e7420746f20776974604482015264686472617760d81b6064820152608401610203565b336000818152600c6020526040808220805490839055905190929190829084908381818185875af1925050503d8060008114610e59576040519150601f19603f3d011682016040523d82523d6000602084013e610e5e565b606091505b5050905080610ea05760405162461bcd60e51b815260206004820152600e60248201526d155b9cdd185ad94819985a5b195960921b6044820152606401610203565b336000908152600960205260408120805491610ebb83611c0f565b91905055506001935050505090565b604080518082018252601981527f7465737446756e6374696f6e466f72436865636b506f696e740000000000000060208083019190915233600090815260088252838120428252909152918220906108549082611865565b336000908152600b602052604081205460ff16610f515760405162461bcd60e51b815260040161020390611ced565b336000908152600c602052604090205415610fc35760405162461bcd60e51b815260206004820152602c60248201527f596f752068617665207374616b656420616d6f756e742c20706c65617365207560448201526b1b9cdd185ad948199a5c9cdd60a21b6064820152608401610203565b336000818152600b60209081526040808320805460ff191690558051808201825260128152713232b932b3b4b9ba32b920b9a9ba30b5b2b960711b81840152938352600882528083204284529091529020906108549082611865565b3360009081526004602052604081205460ff1661104e5760405162461bcd60e51b815260040161020390611d2f565b6001600160a01b03831660009081526005602052604090205460ff166110c65760405162461bcd60e51b815260206004820152602760248201527f4e6f20636c61696d207265717565737420666f756e6420666f722074686973206044820152666164647265737360c81b6064820152608401610203565b6001600160a01b038316330361115b5760405162461bcd60e51b815260206004820152604e60248201527f596f752c2077686f20697320616e20696e73757265722c2063616e6e6f74207360448201527f75626d6974206120636c61696d20746f20796f757273656c662c20776869636860648201526d081a5cc8184818db185a5b585b9d60921b608482015260a401610203565b3360009081526007602090815260408083206001600160a01b0387168452825291829020805460ff19166001179055815160608101909252602580835290611d96908301393360009081526008602090815260408083204284529091529020906111c59082611865565b503360009081526009602052604081208054916111e183611c0f565b9190505550811561135a576002546001906001600160a01b03163181106112705760405162461bcd60e51b815260206004820152603c60248201527f546865205265496e737572616e6365506f6f6c20636f6e74726163742068617360448201527f206e6f2066756e647320746f2075736520666f72207061796d656e74000000006064820152608401610203565b600254604051636fbc593160e11b81526001600160a01b03909116600482018190526024820183905260009163df78b262906044016020604051808303816000875af11580156112c4573d6000803e3d6000fd5b505050506040513d601f19601f820116820180604052508101906112e89190611cd0565b9050806113535760405162461bcd60e51b815260206004820152603360248201527f4661696c656420746f20646973747269627574652066756e64732066726f6d206044820152721d1a19481499525b9cdd5c985b98d9541bdbdb606a1b6064820152608401610203565b505061149f565b600047116114075760405162461bcd60e51b815260206004820152606860248201527f5468697320496e737572616e6365436c61696d4d616e6167657220636f6e747260448201527f6163742c20776869636820697320746865207072696d616c20696e737572616e60648201527f636520706f6f6c2c20686173206e6f2066756e647320746f2075736520666f72608482015267081c185e5b595b9d60c21b60a482015260c401610203565b6040516001906000906001600160a01b0386169083908381818185875af1925050503d8060008114611455576040519150601f19603f3d011682016040523d82523d6000602084013e61145a565b606091505b505090508061149c5760405162461bcd60e51b815260206004820152600e60248201526d14185e5b595b9d0819985a5b195960921b6044820152606401610203565b50505b5060015b92915050565b3360009081526004602052604081205460ff166114d85760405162461bcd60e51b815260040161020390611d2f565b336000818152600460209081526040808320805460ff191690558051808201825260138152723232b932b3b4b9ba32b920b9a4b739bab932b960691b81840152938352600882528083204284529091529020906108549082611865565b336000908152600a60209081526040808320429055600b90915281205460ff166115715760405162461bcd60e51b815260040161020390611ced565b600034116115c15760405162461bcd60e51b815260206004820152601d60248201527f416d6f756e74206d7573742062652067726561746572207468616e20300000006044820152606401610203565b34333110156116125760405162461bcd60e51b815260206004820152601d60248201527f496e73756666696369656e742062616c616e636520746f207374616b650000006044820152606401610203565b336000908152600c6020526040808220349081905590513091908381818185875af1925050503d8060008114611664576040519150601f19603f3d011682016040523d82523d6000602084013e611669565b606091505b50509050806116a95760405162461bcd60e51b815260206004820152600c60248201526b14dd185ad94819985a5b195960a21b6044820152606401610203565b3360009081526009602052604081208054916116c483611c0f565b9190505550600191505090565b336000908152600b602052604081205460ff16156117405760405162461bcd60e51b815260206004820152602660248201527f596f752061726520616c7265616479207265676973746572656420617320612060448201526539ba30b5b2b960d11b6064820152608401610203565b336000818152600b60209081526040808320805460ff1916600117905580518082018252601081526f3932b3b4b9ba32b920b9a9ba30b5b2b960811b81840152938352600882528083204284529091529020906108549082611865565b634e487b7160e01b600052601160045260246000fd5b808201808211156114a3576114a361179d565b634e487b7160e01b600052604160045260246000fd5b600181811c908216806117f057607f821691505b60208210810361181057634e487b7160e01b600052602260045260246000fd5b50919050565b601f82111561186057806000526020600020601f840160051c8101602085101561183d5750805b601f840160051c820191505b8181101561185d5760008155600101611849565b50505b505050565b815167ffffffffffffffff81111561187f5761187f6117c6565b6118938161188d84546117dc565b84611816565b6020601f8211600181146118c757600083156118af5750848201515b600019600385901b1c1916600184901b17845561185d565b600084815260208120601f198516915b828110156118f757878501518255602094850194600190920191016118d7565b50848210156119155786840151600019600387901b60f8161c191681555b50505050600190811b01905550565b80356001600160a01b038116811461193b57600080fd5b919050565b6000806040838503121561195357600080fd5b61195c83611924565b946020939093013593505050565b602081526000825180602084015260005b81811015611998576020818601810151604086840101520161197b565b506000604082850101526040601f19601f83011684010191505092915050565b6000602082840312156119ca57600080fd5b6119d382611924565b9392505050565b60008083601f8401126119ec57600080fd5b50813567ffffffffffffffff811115611a0457600080fd5b6020830191508360208260051b8501011115611a1f57600080fd5b9250929050565b600080600080600060608688031215611a3e57600080fd5b853567ffffffffffffffff811115611a5557600080fd5b8601601f81018813611a6657600080fd5b803567ffffffffffffffff811115611a7d57600080fd5b886020828401011115611a8f57600080fd5b60209182019650945086013567ffffffffffffffff811115611ab057600080fd5b611abc888289016119da565b9094509250611acf905060408701611924565b90509295509295909350565b600060208284031215611aed57600080fd5b813567ffffffffffffffff811115611b0457600080fd5b8201601f81018413611b1557600080fd5b803567ffffffffffffffff811115611b2f57611b2f6117c6565b604051601f8201601f19908116603f0116810167ffffffffffffffff81118282101715611b5e57611b5e6117c6565b604052818152828201602001861015611b7657600080fd5b81602084016020830137600091810160200191909152949350505050565b60008060408385031215611ba757600080fd5b611bb083611924565b9150611bbe60208401611924565b90509250929050565b8015158114611bd557600080fd5b50565b60008060408385031215611beb57600080fd5b611bf483611924565b91506020830135611c0481611bc7565b809150509250929050565b600060018201611c2157611c2161179d565b5060010190565b60208082526024908201527f596f7520617265206e6f742072656769737465726564206173206120636c61696040820152631b585b9d60e21b606082015260800190565b6040815283604082015283856060830137600060608583018101829052601f19601f8701168301838103820160208501529081018490526001600160fb1b03841115611cb757600080fd5b8360051b80866080840137016080019695505050505050565b600060208284031215611ce257600080fd5b81516119d381611bc7565b60208082526022908201527f596f7520617265206e6f7420726567697374657265642061732061207374616b60408201526132b960f11b606082015260800190565b60208082526024908201527f596f7520617265206e6f74207265676973746572656420617320616e20696e736040820152633ab932b960e11b60608201526080019056fe7374616b654552433230546f6b656e496e746f5265496e737572616e6365506f6f6c617070726f7665496e737572616e6365436c61696d416e64457363726f775061796d656e74756e7374616b654552433230546f6b656e46726f6d5265496e737572616e6365506f6f6ca26469706673582212200fe8ca1911137d2d8f531c5d20387b0c8a34fe451db6523d19cb38e1cfff41ea64736f6c634300081c0033",
        "linkReferences": {}
    },
    "methodIdentifiers": {
        "approveInsuranceClaimAndEscrowPayment(address,bool)": "a6a721af",
        "approvedClaims(address,address)": "801cdf01",
        "checkpoint(string)": "6697a925",
        "checkpointCounts(address)": "c0a32996",
        "checkpointOfStakings(address)": "86a74843",
        "checkpoints(address,uint256)": "0cdfebfa",
        "claimRequests(address,address)": "8d68dd61",
        "claimants(address)": "171c41af",
        "deregisterAsClaimant()": "69b76ed9",
        "deregisterAsInsurer()": "aa3f6cdd",
        "deregisterAsStaker()": "9a23bfa5",
        "getContractBalance()": "6f9fb98a",
        "insuranceClaimProofVerifier()": "1c407d92",
        "insurers(address)": "de45aeef",
        "reInsurancePool()": "66717ca1",
        "reclaimProtocolVerifier()": "17d1bd2b",
        "registerAsClaimant()": "18666713",
        "registerAsInsurer()": "782d13b3",
        "registerAsStaker()": "fb9316fa",
        "stakeERC20TokenIntoReInsurancePool()": "2283cf29",
        "stakeNativeTokenIntoInsurancePool()": "f5603c07",
        "stakedAmounts(address)": "10c1c103",
        "stakers(address)": "9168ae72",
        "submitInsuranceClaim(bytes,bytes32[],address)": "2481f598",
        "testFunctionForCheckPoint()": "8099b3f5",
        "unstakeERC20TokenFromReInsurancePool()": "767d5679",
        "unstakeNativeTokenFromInsurancePool()": "7d8440ea",
        "version()": "54fd4d50"
    },
    "id": 0
}